:020000040800F2
:100000004806002045010008890B0008910A0008F5
:10001000870B0008E9010008F9190008000000003A
:100020000000000000000000000000007110000847
:10003000A908000800000000410D00080917000889
:100040005F0100085F0100085F0100085F01000810
:100050005F0100085F0100085F0100085F01000800
:100060005F0100085F0100085F0100085F010008F0
:100070005F0100085F0100085F0100085F010008E0
:100080005F0100085F0100085F0100085F010008D0
:10009000D51900085F0100085F0100085F01000832
:1000A0005F0100085F0100085F0100085F010008B0
:1000B0005F0100085F0100085F0100085F010008A0
:1000C0005F0100085F0100085F0100085F01000890
:1000D0005F0100085F0100085F0100085F01000880
:1000E0005F0100085F0100085F0100085F01000870
:1000F0005F0100085F0100085F0100085F01000860
:100100005F0100085F0100085F0100085F0100084F
:100110005F0100085F0100085F0100085F0100083F
:100120005F0100085F0100085F0100085F0100082F
:10013000DFF80CD000F018F800480047451A000816
:10014000480600200648804706480047FEE7FEE7CD
:10015000FEE7FEE7FEE7FEE7FEE7FEE7FEE7FEE777
:100160000D17000831010008064C074D06E0E06855
:1001700040F0010394E8070098471034AC42F6D3EE
:10018000FFF7DAFF181C0008381C000870B501EBF7
:10019000020410F8015B15F0070301D110F8013BD0
:1001A0002A1106D110F8012B03E010F8016B01F8B9
:1001B000016B5B1EF9D12B0705D40023521E0FD40F
:1001C00001F8013BFAE710F8013B02F10202A1EB52
:1001D000030303E013F8015B01F8015B521EF9D53C
:1001E000A142D6D3002070BDFEE7C1B2000A40EAAA
:1001F000012070472DE9F05F4BF6BF7848F2800987
:10020000424F40F68F7A424E424D48F60F7B25E032
:10021000088810F00F00307029D005EB80000168CD
:100220008CB221040AD5026802EA0A0202603A4846
:10023000317800EB810050F8040C804720060DD582
:10024000307805EB8000016801EA0B01016033485A
:10025000317800EB810050F8040C80472D48443081
:1002600000682F4908800004D2D4BDE8F09F2868B8
:100270003880388800F030007880388800F44050AA
:100280003880286800EA080080F4005080F02000E0
:1002900040EA090028600888C006286817D400EAE8
:1002A0000B00286000F0F6FB23E03988890401D5B3
:1002B00080F400507988C90624D47988890601D54C
:1002C00080F0200080B240EA09002860CDE780B2CB
:1002D000010506D5286800EA0A00286001F04AF8FE
:1002E00007E00004BAD5286800EA0A00286000F098
:1002F000F3FC2868398800EA0800C904D5D580F4E1
:100300008050D2E780F01000D7E700002A000020DC
:1003100018000020005C00407400002058000020FD
:1003200056000020074901EB80000168490407D509
:10033000016848F68F7211404CF28002114301604F
:1003400070470000005C0040074901EB8000016835
:10035000490607D5016848F68F72114048F2C0027D
:100360001143016070470000005C0040054901EB4B
:100370008000016848F68F62114048F28002114304
:1003800001607047005C0040124910B50A680628F9
:10039000117801F07F0103D1012901D1537913B103
:1003A00021290AD013E09078222802D0212802D0F7
:1003B0000DE0094904E0094902E0032807D1084992
:1003C00029B10020916150828847002010BD022091
:1003D00010BD00001C00002025040008FD030008DB
:1003E00009040008014901F083B80000A0000020C2
:1003F000014901F07DB8000098000020014901F09A
:1004000077B80000A800002008B1044870470449EC
:100410000120096808820020704700009400002035
:100420001C0000200020704705490968C97804298C
:1004300001D900207047034A02EBC10101F058B80E
:100440001C000020E000002009B9002800D0022094
:100450007047000006490968097801F07F012129E9
:1004600001D10B2801D00220704700F083B80000B2
:100470001C00002070B53248002100688172C172F2
:100480003049C9794172002000F0F4FD4FF4007149
:10049000002000F0A5FE1021002000F089FE1821A8
:1004A000002000F00FFE5821002000F063FE002025
:1004B000FFF75CFF244890F82C10002000F012FE9B
:1004C000002000F047FE0021012000F089FE982165
:1004D000012000F0F7FDD821012000F04BFE402163
:1004E000012000F0FFFD4FF440542146012000F0B0
:1004F00019FE2021012000F05BFE0021022000F007
:100500006FFE4FF49071022000F0DCFD4FF4B071EB
:10051000022000F02FFE4021022000F0E3FD2146E2
:10052000022000F0FFFD2021022000F041FE074DD7
:1005300001242C60002000F0A5FD2C6070BD00009F
:100540001C000020B61B0008B00000202401002081
:100550000348807A002802D00249052008607047CD
:100560002C0100202401002001490420086070476C
:1005700024010020034804490068C0780860002076
:10058000704700001C000020940000207047704756
:1005900010B500F063FA054800240068847200F08A
:1005A000F3FB01F019FA0248046010BD1C000020A2
:1005B000240100202DE9F047DFF89490254F4FF0FB
:1005C0003008D9F8001001F11005088A0E7A08B930
:1005D000042E04D0AC88A04215D8042614E01E498D
:1005E0000878012803D00726102038802BE01B4A0A
:1005F000002012681A4B92B203EB42025060A7F837
:10060000008008701FE00226844200D90446A968D1
:10061000A0B288478246002000F012FA0146A2B23A
:10062000504601F0EBF9A1B2002000F0B3FD28889C
:10063000001B2880688820446880A7F8008009494A
:100640004FF440500880D9F800000672BDE8F087EA
:100650001C0000202C00002014000020505C0040F2
:10066000006000402A0000202DE9F047224EDFF80C
:100670008C803027346834F8100FA168A9B100B31A
:10068000A588854200D90546A8B2884781462088BA
:10069000401B2080608828446080002000F0B0F972
:1006A0000146AAB2484600F03BFB208848B11449F5
:1006B0004FF4405008800021084600F06BFDA8F878
:1006C00000702088A188884201D3032001E020B176
:1006D000052031680872BDE8F0873168062008728D
:1006E000084900200968084A89B202EB41014860C4
:1006F000A8F80070EFE700001C0000202C0000208C
:100700002A000020505C0040006000402DE9F041CC
:100710005C4C5D4D09262068002729684278062A2E
:1007200005D0AAB1082A4BD00A2A4ED069E0027837
:10073000520666D18078012804D0022804D003280C
:1007400004D05EE0C96954E0096A52E0496A50E0A9
:100750004288A2BBC288022A53D102797ABB0278AE
:10076000530601D1838833B102F07F02012A04D0FD
:10077000022A0CD045E045493BE08A6940790021D6
:100780009047E0B92068807A0028F4D139E04179B7
:1007900001F00F0001F070020B063D4951F82010E6
:1007A00003D5C1F30111090102E0C1F301310903CD
:1007B000384B1B78834224D90AB90029DBD120E0C9
:1007C000007840061DD1344913E0027802F07F0220
:1007D000012A16D1827AA2B1428892B9027982B9ED
:1007E000C288012A0DD18A6940790021904740B919
:1007F0002A4931B120684782816100208847002062
:1008000006E029682068096940788847032808D0ED
:1008100021680A8AA2F57F43FF3B05D10E72BDE82D
:10082000F08120680672FAE7022808D03AB1087809
:10083000000620D5C888824205D9088213E04FF00F
:1008400008000872EBE70ED22868154B90F82C00D0
:10085000824201D21F7006E0B2FBF0F400FB1420CC
:1008600008B901201870286890F82C008882BDE82B
:10087000F041FFF79FBE032008720A490003088079
:10088000CDE700001C0000202000002035150008E6
:10089000005C004090000020C91400080D150008FD
:1008A000140000202A00002070478A22FE21FF2029
:1008B000401E10F0FF00FBD1491E11F0FF01F6D1E0
:1008C000521E12F0FF02F1D17047704710B501209F
:1008D00000F0A6F8074908600868982182B2064827
:1008E00000F01EFABDE810404FF44051012000F026
:1008F00019BC00004C000020480100207047000097
:1009000010B5022000F08CF80749486048684FF4A1
:10091000907182B2054800F003FABDE810404FF430
:100920004051022000F0FEBB4C0000204801002096
:100930007047000004490A6822F010020A600A6841
:1009400002430A607047000000200240034A116819
:1009500001F038010143116070470000002002409F
:10096000F0B5CC78002204F00F03E40601D58C78B2
:1009700023430C784FF00F0C4FF0010EDCB10568EB
:100980000E880EFA02F42640A64210D196000CFA08
:1009900006F725EA070703FA06F5CE783D43282E29
:1009A00002D0482E02D002E0446100E00461521CF3
:1009B000082AE5D305600A88FF2A1CD9446800226A
:1009C00002F108060EFA06F50E882E40AE420ED150
:1009D00096000CFA06F7BC4303FA06F7CE783C43C0
:1009E000282E00D14561CE78482E00D10561521CD9
:1009F000082AE5D34460F0BD41617047016170474A
:100A00000549096889B201EBC000044901EB4000C7
:100A1000008980B270470000505C004000600040D8
:100A20000549096889B201EBC000044901EB4000A7
:100A30008089C0F309007047505C004000600040AE
:100A40000449096889B201EBC000034931F810007C
:100A500080B27047505C0040006000400A4810B50A
:100A60000168001D0468001D006808180BD00822EA
:100A7000064900F03DF8054920460422BDE8104033
:100A8000103100F035B810BDE8F7FF1F310000202D
:100A9000FEE7000010B5134C2068017A022904D04B
:100AA000042902D0062905D015E0FFF783FD206850
:100AB000007A11E04178052909D10178490606D16B
:100AC000C07800F0DFFA08480068006A80470748ED
:100AD000006880688047082021680872BDE81040DF
:100AE00000F030B91C00002024000020200000206D
:100AF000F0B500230A24302537261F4610E0B4EB5A
:100B0000107F02D905EB107C01E006EB107C01F8A8
:100B100013C001EB430C00015B1C8CF80170DBB2CD
:100B20009342ECD3F0BD0000F8B501210C2000F099
:100B30004DF94FF6F375ADF8005010260F4F8DF8B4
:100B4000036003248DF8024069463846FFF708FF2A
:100B500029463846FFF750FFAD11ADF800508DF82B
:100B600003608DF80240064C69462046FFF7F8FE08
:100B700029462046FFF740FFF8BD0000000C014069
:100B8000000801407047FEE77047704770B50F23BB
:100B9000C278017801244FF0E025DAB1124A1268D8
:100BA00002F4E062C2F5E062120AC2F10406D34028
:100BB0004278B24086781E400C4B16433201CA542C
:100BC000007800F01F018C40400905EB8000C0F860
:100BD000004170BD01F01F008440480905EB800012
:100BE000C0F8804170BD00000CED00E000E400E0C2
:100BF0000249084302490860704700000000FA05F6
:100C00000CED00E070B52F4D2868017844784A0655
:100C100006D001F07F00012828D002282BD035E033
:100C2000092C06D0052C07D0032C0ED0012C14D093
:100C30002CE000F0C7FC28E0C1787F292ED881780D
:100C400061BB818851BB807A27E0C17801291DD121
:100C50008088D8B900F0D2FC17E0C178012915D1FD
:100C6000818899B9407A80060AD40FE00B2C0DD107
:100C700000F016FD09E0012C02D0032C03D005E0A2
:100C800000F0ACFB01E000F0CBFC58B10E49E0B243
:100C9000096849698847032802D018B108200DE087
:100CA00009200BE0094A062000211268084B92B285
:100CB00003EB42025160074A302111802968087213
:100CC00070BD00001C00002020000020505C00408F
:100CD000006000402C00002010B50F4C2068007A06
:100CE000022811D004280FD0032804D0052802D0F0
:100CF000072805D008E0FFF7B7FC2068007A04E079
:100D000006480068C0688047082021680872BDE86E
:100D1000104000F017B800001C0000202000002048
:100D2000064B521C520803EB410105D031F8043B3D
:100D300020F8023B521EF9D17047000000600040CD
:100D4000704700000C4810B590F82C10002000F0FF
:100D5000C9F90A480068007A082802D0092809D091
:100D600006E007494FF480500880064910200880AB
:100D7000002010BD012010BDB00000201C0000208C
:100D80002A0000202C00002010B5012000F08EFD6C
:100D90000648012101600021054A0160031D196018
:100DA0004FF4E05111800160002010BD405C004014
:100DB00028000020044A0029D16901D0014300E045
:100DC0008143D1617047000000100240044A0029AD
:100DD000916901D0014300E08143916170470000B7
:100DE000001002400C48016841F0010101604168B7
:100DF0000A4A114041600168094A114001600168D6
:100E000021F480210160416821F4FE0141604FF42A
:100E10001F01816070470000001002400000FFF8D1
:100E2000FFFFF6FE214A10B55168214B11F00C016D
:100E300003D0042901D0082901D0036012E05168D1
:100E4000536801F470114FF0020413F4803F04EB77
:100E5000914102D053689B0301D5164B00E0144B1F
:100E6000594301605168144B01F0F00109095C5CC1
:100E70000168E1404160546804F4E064240A1C5DA8
:100E800021FA04F48460546804F46054E40A1B5D9D
:100E9000D940C1605268084B02F44042920B1B1FBC
:100EA0009A5CB1FBF2F1016110BD0000001002403C
:100EB00000127A0000093D000400002003460020D3
:100EC0005909094A01290AD002290AD0516A03F0B6
:100ED0001F02012393400B4200D00120704711688C
:100EE000F5E7116AF3E7000000100240024840688D
:100EF00000F00C007047000000100240034A5168E7
:100F000021F0F001014351607047000000100240E1
:100F10000B490A6822F480320A600A6822F48022AF
:100F20000A60B0F5803F07D0B0F5802F03D1086884
:100F300040F4A02008607047086840F48030F9E76A
:100F400000100240034A516821F4E06101435160FE
:100F50007047000000100240034A516821F46051BC
:100F600041EAC00050607047001002400149086625
:100F70007047000000004242034B5A68084322F4C5
:100F80007C1210435860704700100240034A5168B9
:100F900021F003010143516070470000001002403E
:100FA0000149086070470000D800424230B5002473
:100FB0004FF4A0653120FFF781FF641CAC4201D0E3
:100FC0000028F7D03120FFF779FF002800D001205A
:100FD00030BD000070B51C4C072800D02070207870
:100FE00006260425194906282CD2DFE800F003065E
:100FF000090E162000F02CF824E000F029F80AE091
:10100000022060700320207070BD6078401E607008
:1010100060780028F8D1257070BD086880B240F073
:1010200010000860052020700A20607070BD607894
:10103000401E607060780028F8D1086880B220F007
:1010400010000860267070BD29010020405C00403F
:1010500010B5064C206880B220F004002060FFF735
:1010600091FD4FF43F40206010BD0000405C004007
:1010700070470000024920F0070008607047000038
:10108000505C0040F0B50D490D4E48F68F770D7855
:10109000002148F2800C09E0CAB206EB82031C680A
:1010A0003C40144344EA0C041C60491CA942F3D39D
:1010B000034940F080004C310860F0BD90000020F2
:1010C000005C0040054A21F00101126892B202EB77
:1010D000C000034A02EB400081607047505C004052
:1010E000006000400D4A12683E2992B202EBC00037
:1010F0000B4A02EB400209D94809C90601D1401E3A
:1011000080B24FF4004141EA802005E04808C90759
:1011100001D0401C80B2800210607047505C0040DB
:101120000C6000400A4A02EB800210684BF68F7395
:1011300000EA0300CB0401D580F48050890401D576
:1011400080F4005048F280010843106070470000AE
:10115000005C0040064901EB800001684BF68F728D
:10116000114081F4405148F2800211430160704700
:10117000005C0040054A21F00101126892B202EBC6
:10118000C000034A42F8101070470000505C004055
:1011900000600040044A126892B202EBC000034AA9
:1011A00002EB400041607047505C0040006000402E
:1011B0000A4A02EB8002106848F6BF7300EA030097
:1011C000CB0601D580F01000890601D580F0200003
:1011D00048F280010843106070470000005C004046
:1011E000044A02EB8000026848F68F131A400A4353
:1011F00002607047005C0040224900200A6842F407
:1012000080320A604FF4A0630A6800F1010012F412
:10121000003F01D19842F7D10868800330D51A48C1
:10122000026842F010020260026822F003020260CB
:10123000026842F0020202604868486048684860FC
:10124000486840F480604860486820F47C1048603A
:10125000486840F4E8104860086840F08070086012
:1012600008688001FCD5486820F0030048604868A1
:1012700040F0020048604868C0F381000228FAD1BB
:1012800070470000001002400020024038B5FFF710
:10129000A9FD4FF480342046FFF73AFEFFF786FEA3
:1012A0002B490128087000D0FEE71020FFF742FB11
:1012B0000220FFF74BFB0020FFF720FE0020FFF786
:1012C0004BFE4FF48060FFF73DFE4FF4E0112046E7
:1012D000FFF752FE0120FFF749FE3920FFF7EEFD30
:1012E0000028FAD00220FFF751FEFFF7FFFD082883
:1012F000FBD101214006FFF75DFD01214020FFF7F2
:1013000065FD4FF40060ADF8000002208DF802008A
:1013100010248DF8034069460E48FFF721FB012198
:101320001020FFF753FDC020ADF8000003208DF81A
:1013300002008DF8034069460748FFF711FB4FF4A0
:101340004050ADF8000069460448FFF709FB38BD7E
:101350002E0000200018014000080140000C014050
:1013600010B50020FFF71CFE0121BDE81040C805A4
:10137000FFF720BD70B516480068174D81B21548BB
:1013800000EB4101098989B200EB41042868017A28
:1013900009290FD02178017061784170A088FEF78B
:1013A00024FF296848802089FEF71FFF296888806C
:1013B000A089C880286801210172C08828B1FFF780
:1013C000A5F9BDE87040FFF7BDBCFFF71BFCF8E7CF
:1013D000505C0040006000401C0000202DE9F041FE
:1013E00034480068017811F07F0102D0022905D04D
:1013F0005DE0417A01F0DF01417247E04188002958
:1014000055D10179F1BB41792C4D21F080040A06B8
:10141000294B55F8242003D5C2F30112120102E032
:10142000C2F3013212031E782346A6423FD94AB3C3
:10143000807A38B308060DD555F82400C0F30110A2
:1014400001281DD1E0B2FEF77FFFE0B23021FFF7A7
:10145000AFFE15E005EB84063068C0F301300128CB
:101460000ED14BF68F7748F2800894B1D8B2FEF7D0
:1014700059FF3068384080F4405040EA080030603E
:101480000F4800E013E00068406980470020BDE895
:10149000F0810C4890F82C100020FFF723FE2868FC
:1014A000384080F4405040EA08002860E8E7022015
:1014B000EDE700001C00002090000020005C0040D0
:1014C00024000020B000002010B5074C30B10748C0
:1014D00000680068804720680A3010BD216801203C
:1014E0000882002010BD00001C0000202400002005
:1014F000054A13685A8A10B10868104470478888F2
:10150000801A1882002070471C00002010B5074C7C
:1015100030B1074800688068804720680C3010BDF3
:10152000216801200882002010BD00001C0000205E
:10153000240000201F4910B5096860B11E48002230
:1015400002800A7853060AD002F07F02012A16D0E0
:10155000022A16D001E002200882002010BD497A3C
:101560008A06027802D542F0020201E002F0FD0292
:1015700049060270D1B210D401F0FE010FE00E480E
:1015800010BD4A7902F00F0113060C4A52F82110DF
:1015900007D5C1F3011106E0017841F001010170A6
:1015A00003E0C1F301310129F6D005480068006964
:1015B0008047E4E71C00002016000020005C00408B
:1015C000240000200A4810B500680A4AC178527801
:1015D000914203D882780AB982880AB1022010BDEC
:1015E00081720548006840688047002010BD0000F7
:1015F0001C0000209000002024000020064810B5A8
:101600000068417A41F02001417204480068C069D5
:101610008047002010BD00001C0000202400002096
:1016200070B51B4802681B48517921F0800500EB1A
:1016300085000B06036821F0800403D5C3F3011372
:101640001B0102E0C3F301331B03134D2D78A542A8
:101650000FD954886CB963B1927A52B10906016806
:1016600048F2800207D548F6BF73194081F0100197
:1016700006E0022070BD4BF68F73194081F4805153
:10168000114301600548006880698047002070BDF3
:101690001C000020005C004090000020240000207E
:1016A00010B50E4C0E4A20681268C17892694079D4
:1016B000904721688A7A22B118B9087908B98878E0
:1016C00008B1022010BD07480068C0688047206844
:1016D0004179C172C1780173002010BD1C00002047
:1016E00020000020240000200648016889B241F053
:1016F00008010160016889B241F004010160FFF74F
:1017000017B90000405C0040704700000F4810B55A
:10171000016841F00101016041680D4A11404160DA
:1017200001680C4A11400160016821F480210160C8
:10173000416821F4FE0141604FF41F018160FFF711
:101740005BFD05494FF00060086010BD00100240CD
:101750000000FFF8FFFFF6FE08ED00E00029818998
:1017600002D041F4005101E021F400518181704721
:101770001FB500F095F84FF4E13000900020ADF86F
:101780000600ADF80400ADF80800ADF80C000C2020
:10179000064CADF80A006946204600F027F8012102
:1017A0002046FFF7DBFF00F003F81FBD00380140C3
:1017B00038B518208DF803004FF40070ADF8000024
:1017C0000320094C8DF8020069462046FFF7C8F84F
:1017D00004218DF803100902ADF800106946204677
:1017E000FFF7BEF838BD00000008014030B50446E0
:1017F000008A85B00D464CF6FF710840E988014328
:101800002182A0894EF6F3110840A9882A89114344
:101810006A8902431143A181A08A4FF6FF41084023
:10182000A9890143A1826846FFF7FCFA1B4884425C
:1018300001D1039800E00298A1890904002900EB76
:10184000C00101EB0010296802DA4FEA410101E012
:101850004FEA8101B0FBF1F06422B0FBF2F14FEAF4
:1018600001114FEA11136FF018056B4300EB830071
:10187000A3891D044FF0320306D503EBC000B0FB73
:10188000F2F000F0070005E003EB0010B0FBF2F00F
:1018900000F00F000843208105B030BD0038014042
:1018A000012144F20400FFF791BA0000044A002825
:1018B0004FF40061104601D0FFF79EB8FFF79EB8C5
:1018C0000018014006480549022201600A72064AD2
:1018D0000449C0E901120868004700002C010020FB
:1018E0001C000020B00000200001002008B54FF4CB
:1018F0004070FFF77DF914208DF8000001208DF86D
:10190000010000218DF802108DF803006846FFF7F2
:101910003DF908BD70B52A4C20682A4D688068885A
:10192000294E31880840000401D5FEF763FC688821
:1019300031880840400505D54FF6FF302060234828
:1019400040688047698830880140890402D54DF697
:10195000FF71216069880140C80405D54EF6FF700B
:1019600020600020FFF736FB6888318808400005BA
:101970000BD51748007810B1FFF7B6FE02E0022041
:10198000FFF728FB4FF2FF70206069883088014024
:10199000890506D54FF6FF512160297801F1010133
:1019A0002970698801EA0001C80507D54FF6FF6074
:1019B0002060BDE870400720FFF70CBB70BD000041
:1019C000445C00405400002028000020B0000020AB
:1019D00028010020FFF79EBF054900200860054947
:1019E0004FF43F4008800249091F086000207047FB
:1019F000445C004028000020FEE70000084B10B5C2
:101A0000521C520803EB410108D003784478801C33
:101A100043EA042321F8043B521EF6D110BD000016
:101A20000060004002E008C8121F08C1002AFAD175
:101A300070477047002001E001C1121F002AFBD14E
:101A40007047000086B00024FFF720FCFFF75EFE21
:101A5000FFF78EFEFFF74AFFFFF782FCFFF732FF2A
:101A6000FFF762F8694619200855641C182CFBD34F
:101A70004A4D4B4F40F2FF344FF6F3764FF4A878BF
:101A80004FF408794FF4817A44F2410B21462846FD
:101A9000FEF7B2FF31463846FEF7AEFF4146284614
:101AA000FEF7ACFF20213846FEF7A8FFFEF7FDFE4B
:101AB000FEF7FBFE21462846FEF79EFF31463846DC
:101AC000FEF79AFF49462846FEF798FF51463846EA
:101AD000FEF794FFFEF7E9FEFEF7E7FE21462846F3
:101AE000FEF78AFF31463846FEF786FF0421284676
:101AF000FEF784FF59463846FEF780FFFEF7D5FE15
:101B0000FEF7D3FE21462846FEF776FF31463846DB
:101B1000FEF772FF81212846FEF770FF41F21001A7
:101B20003846FEF76BFFFEF7C0FEFEF7BEFE21460D
:101B30002846FEF761FF31463846FEF75DFF022179
:101B40002846FEF75BFF4FF412513846FEF756FF6A
:101B5000FEF7ABFEFEF7A9FE21462846FEF74CFF36
:101B600031463846FEF748FF08212846FEF746FF73
:101B70004FF40A413846FEF741FFFEF796FEFEF7A6
:101B800094FE21462846FEF737FF31463846FEF7D9
:101B900033FFFEF78AFEFEF788FE77E70008014074
:101BA000000C014012010002000000408314515754
:101BB00000020102030109022E00010100E0FA09FE
:101BC00004000004DCA0B00007058102400000070B
:101BD00005010240000007058202400000070502DF
:101BE000024000000403090414034D00790055006D
:101BF000530042005F004800490044001A035300AC
:101C000054004D003300320041006E006400720049
:101C10006F00690064000000381C0008000000200C
:101C20002C0100008C010008C01C00082C010020C1
:101C30001C050000341A000845020406082D0102A4
:101C4000030404051B06070809141A0378A90201F6
:101C50001913CB081B08FD040B108B0B041ACD18AD
:101C60000B1401091C63030113A41B3308121AB6D9
:101C700008322E1AC8082999139105140875041BF7
:101C8000088D081A8F041389031B0855101A49047C
:101C90001AF10C1AE5041A290C4132401AE43832C0
:101CA000041AE80832141AFC08321A222F2A2008D3
:101CB00029741A514809128C29041A691C41299760
:0400000508000131BD
:00000001FF
